S017000044656275672F73696E67656C706F6E672E73313991
S315200000000248854600F05CFFFEE7C04600C001209E
S315200000100248854600F054FFFEE7C04600C0012096
S3152000002080B584B000AF78600023FB6005E0FB68F4
S315200000300133FB607B6801337B607B681B78002B78
S31520000040F5D1FB681800BD4604B080BD80B586B0EA
S3152000005000AF7860396000237B6100233B617B68B9
S31520000060FB6009E03B6901333B61FB680A2118000C
S3152000007001F008F80300FB60FB68002BF2D1002397
S315200000807B611CE07B680A21180001F0E1F80B0077
S31520000090BB607B680A21180000F0F4FF03007B6038
S315200000A0BB68DAB27B6901333969CB1A19003B6820
S315200000B05B183032D2B21A707B6901337B617A6960
S315200000C03B699A42DEDB3B693A68D31800221A70F4
S315200000D0C046BD4606B080BD80B586B000AFF8608C
S315200000E0B9607A6000237B6111E07B69BA68D21817
S315200000F0FB681B6819007B685B1812781A70FB680E
S315200001001B685A1CFB681A607B6901337B61BB68DC
S315200001101800FFF785FF02007B699342E5DBC046A6
S31520000120C046BD4606B080BD80B582B000AF7860BF
S315200001307B68012B08D10D4B1B685A1C0B4B1A6090
S315200001400021012000F09EF87B68022B08D1084B85
S315200001501B685A1C064B1A600021022000F092F8F8
S3152000016000F008F8C046BD4602B080BD0815002044
S315200001700C150020B0B596B000AF2F4B1B68002B96
S3152000018003DC2E4B1B68002B52DD2C4B1B685A1CA4
S31520000190294B1B689A4222DA294B01221A6000F069
S315200001A02DFF44203B18274A32CA32C311681960F2
S315200001B09188998092799A713B180521180000F050
S315200001C06DFC2C217B18204A31CA31C311CA11C3B8
S315200001D012781A707B180521180000F07DFC164B4A
S315200001E01B685A1C154B1B689A4221DA144B0122B4
S315200001F01A6000F003FF18203B18144A32CA32C393
S31520000200116819609188998092799A713B180A2110
S31520000210180000F043FC3B000B4A13CA13C303CA61
S3152000022003C312781A703B000A21180000F054FC10
S31520000230C046BD4616B0B0BD081500200C150020DE
S3152000024010150020381400204C14002064140020BF
S3152000025080B500AF00F07EFB084B00221A60084BE9
S3152000026000221A600A21012000F00CF80A2102203F
S3152000027000F008F8C046BD4680BDC04608150020DF
S315200002800C150020F0B595B000AF7860396040219C
S315200002907B183C4A11CA11C312881A803423FB18D2
S315200002A0394A11CA11C312881A800023FB617B6860
S315200002B0012B07D12023FA1879181C23FB181800C4
S315200002C0FFF70AFF7B68022B08D12023FA18342374
S315200002D0F9181C23FB181800FFF7FEFE7B68012B7C
S315200002E002D12A4B1B68FB647B68022B02D1284B68
S315200002F01B68FB64FB6C002B07D114217B18302272
S315200003001A707B1800225A7006E01423FA18FB6C28
S3152000031011001800FFF79AFEFB6920243A192021C4
S31520000320D154FB690133FB613A191423F9181C25B2
S315200003307B191800FFF7D0FE0C217B18154A41CAFD
S3152000034041C33A1979187B191800FFF7C5FEFB69D6
S315200003503A190021D1547B68012B05D13A683B1903
S315200003601100180000F09AFB7B68022B06D13A6830
S315200003702023FB181100180000F0AEFBC046BD4636
S3152000038015B0F0BD78140020841400200815002034
S315200003900C15002090140020F0B591B000AF7860C5
S315200003A0396034217B181B4A11CA11C312881A805E
S315200003B00023FB6120243A1979181C257B19180083
S315200003C0FFF78AFEFB693A192021D154FB690133D4
S315200003D0FB613A191423F9187B191800FFF77CFEE4
S315200003E00C217B180C4A41CA41C33A1979187B194A
S315200003F01800FFF771FEFB693A190021D1543B1909
S315200004000021180000F068FB00231800BD4611B03B
S31520000410F0BDC046781400209014002080B584B02A
S3152000042000AFF860B9607A60194B00221A60194B48
S3152000043000221A60184B00221A60FB689B69FA6832
S3152000044010009847FB681E221A61FB685B69FA68F0
S3152000045010009847BB689B69BA6810009847BB682C
S315200004601E221A61BB685B69BA681000984700F0C3
S31520000470F1FDFFF7EDFE0A2000F0A2FB7A68FB688B
S315200004801100180000F00AF8C046BD4604B080BD31
S31520000490081500200C1500201015002080B584B00A
S315200004A000AF786039603B689B693A6810009847CE
S315200004B03B685A683B68DB68D318FB603B689A68E0
S315200004C03B681B69D318BB603C23FB600A23BB60D7
S315200004D03B68FA68DA603B68BA681A613B685B6910
S315200004E03A68100098470D4B1A680D4B1B689A42C4
S315200004F006DD3B681B6A386802220421984706E01D
S315200005003B681B6A0422514238680222984700F051
S31520000510A1FDC046BD4604B080BDC04608150020DA
S315200005200C15002080B582B000AF78607B68042B64
S3152000053019D87B689A000E4BD3181B689F460D4B23
S3152000054010221A700FE00B4B20221A700BE0094B79
S3152000055040221A7007E0074B80221A7003E0054BF1
S3152000056000221A70C046C046BD4602B080BDC046B5
S3152000057098140020150C024080B582B000AF104BB5
S315200005801B78DBB27B607B680822134001D00423F2
S3152000059012E07B680422134001D003230CE07B6821
S315200005A00222134001D0022306E07B680122134079
S315200005B001D0012300E000231800BD4602B080BD13
S315200005C0110C024090B587B000AF3B00144A13CA05
S315200005D013C312681A6001237B6116E07B69180039
S315200005E0FFF7A0FFFFF7C8FF03003B613B69002B25
S315200005F008D07B69013B9A003B69013BD3183A003E
S31520000600D35C09E07B6901337B617B69042BE5DDE3
S315200006100020FFF787FFFF231800BD4607B090BDD7
S31520000620AC14002080B588B000AF786039607B6854
S31520000630DB68BB617B68DA687B681B685B68D318FC
S315200006407B617B681B689A687B681B69D3183B6152
S315200006507B681B69FB600023FB613BE03B681A68F3
S31520000660FB6904335B00D31804331A783B68DB68D4
S31520000670DBB2D318DAB208217B181A703B681A68E5
S31520000680FB6904335B00D31805331A783B681B6972
S31520000690DBB2D318DAB27B185A707B181B781A0093
S315200006A0BB69934213DC7B181B781A007B69934243
S315200006B00DDB7B185B781A003B69934207DB7B18BE
S315200006C05B781A00FB68934201DC012309E0FB6991
S315200006D00133FB613B681B681B68FA699A42BDDBE4
S315200006E000231800BD4608B080BD80B582B000AF9B
S315200006F03B1D18803B0019803B1D1A783B001B7858
S315200007009A4207D13B1D5A783B005B789A4201D129
S31520000710012300E000231800BD4602B080BDC0467C
S3152000072080B500AF0B4B18221A600B4B0B4A1A6090
S315200007300B4B0A4A1A600B4B0B4A1A600B4B1B8851
S315200007400A4B00221A800A4B044A1A60C046BD464C
S3152000075080BDC04630380240080C024055555555DC
S31520000760001002400C1002400000555504100240B3
S315200007700810024080B584B000AF0200FB1D1A703D
S31520000780094A0F217B1812781A70FA1D7B181278E5
S315200007901B781343DBB2044A04210B43DBB21370EC
S315200007A0C046BD4604B080BD1410024080B584B05A
S315200007B000AF0200FB1D1A700D4A0F217B1812781C
S315200007C01A70FB1D1B785BB2DB435BB27A1812787A
S315200007D052B213405AB27B181A70054A7B181B78FE
S315200007E004210B43DBB21370C046BD4604B080BD66
S315200007F01410024080B582B000AF4020FFF7BAFF48
S3152000080000F0BCF900F0BAF9064AFB1D12781A70FE
S315200008104020FFF7CBFFFB1D1B781800BD4602B01A
S3152000082080BDC0461010024080B582B000AF0200E5
S31520000830FB1D1A704020FFF79DFF064AFB1D1B7803
S31520000840137000F09BF94020FFF7B0FFC046BD466D
S3152000085002B080BD1510024090B583B000AF0B4B9F
S315200008600B4A1A600220FFF785FF0120FFF79EFF43
S31520000870FC1DFFF7BFFF03002370044B054A1A60D7
S31520000880FB1D1B781800BD4603B090BD001002402A
S31520000890555500005555555580B500AF064B074AAE
S315200008A01A600220FFF766FF0120FFF77FFFC04690
S315200008B01800BD4680BDC0460010024055550000B8
S315200008C080B582B000AF0200FB1D1A700120FFF731
S315200008D06DFF0220FFF76AFFFB1D1B781800FFF74C
S315200008E0A3FFC046BD4602B080BD80B582B000AF32
S315200008F00200FB1D1A700120FFF73CFF0220FFF7C4
S3152000090055FFFB1D1B781800FFF78EFFC046BD461E
S3152000091002B080BD80B582B000AF02003960FB1DF9
S315200009201A70C046FFF798FF03001A008023134071
S31520000930802BF7D0082000F043F9FB1D1B78180008
S31520000940FFF7D3FF3B68180000F03AF9C046BD46D2
S3152000095002B080BD80B500AFC046FFF77DFF030023
S315200009601A0080231340802BF7D0082000F028F9A6
S315200009703820FFF7A5FF272000F022F9C046FFF711
S315200009806BFF03001A0080231340802BF7D008202A
S3152000099000F016F90C20FFF793FF272000F010F93E
S315200009A0C046FFF759FF03001A0080231340802B0F
S315200009B0F7D0082000F004F9C046FFF74DFF0300EA
S315200009C01A0080231340802BF7D0082000F0F8F877
S315200009D00120FFF775FF022000F00DF90620FFF732
S315200009E06FFFC046BD4680BD80B584B000AF020013
S315200009F0FB1D1A70BB1D0A1C1A70BB1D1B78012B10
S31520000A000BD0FB1D1B78013BDBB25BB240221343AC
S31520000A105AB20F23FB181A7005E00F23FB18FA1D94
S31520000A201278013A1A700F23FB181B788022524243
S31520000A301343DBB21800FFF743FFC046BD4604B0A0
S31520000A4080BD80B584B000AF0200FB1D1A70BB1DAF
S31520000A500A1C1A70BB1D1B78022B0BD1FB1D1B78A1
S31520000A60013BDBB25BB2402213435AB20F23FB1881
S31520000A701A7005E00F23FB18FA1D1278013A1A7036
S31520000A800F23FB181B78802252421343DBB2180037
S31520000A90FFF716FFC046BD4604B080BD80B584B0C2
S31520000AA000AF7860396001210120FFF7CAFF7B681B
S31520000AB0FB6008E0FB685A1CFA601B783A68110054
S31520000AC01800FFF727FFFB681B78002BF2D1C046E2
S31520000AD0C046BD4604B080BD80B584B000AF786006
S31520000AE0396002210120FFF7ACFF7B68FB6008E03C
S31520000AF0FB685A1CFA601B783A6811001800FFF749
S31520000B0009FFFB681B78002BF2D1C046C046BD46C4
S31520000B1004B080BDB0B58AB000AF14243B19154A85
S31520000B2023CA23C312881A803B00134A23CA23C32D
S31520000B301168196092889A8000F080F8FFF70AFF02
S31520000B4001210120FFF77DFF3B197B62C0467B6AAE
S31520000B501B78002BFBD102210120FFF772FF3B00FF
S31520000B607B62C0467B6A1B78002BFBD1C046BD4604
S31520000B700AB0B0BDBC140020CC14002080B500AF54
S31520000B800C4B00221A600C4B29221A600B4B0022B8
S31520000B901A60084B01221A60C046064B1A68802349
S31520000BA05B021340F9D0034B00221A60C046BD46B3
S31520000BB080BDC04610E000E014E000E018E000E050
S31520000BC080B584B000AF78600DE00023FB6004E0C0
S31520000BD0FFF7D4FFFB680133FB60FB68032BF7DDCF
S31520000BE07B68013B7B607B68002BEED1C046C0460C
S31520000BF0BD4604B080BD80B584B000AF7860642364
S31520000C00FB6006E0FB681800FFF7DAFF7B68013B14
S31520000C107B607B68002BF5D1C046C046BD4604B03C
S31520000C2080BDC046F0DF7047C046F1DF7047C04642
S31520000C30F2DF7047C046F3DF7047C04680B500AF8D
S31520000C40064B18221A60064B064A1A60064BAA2241
S31520000C5012041A60C046BD4680BDC04630380240E8
S31520000C60000C0240555500550C0C024080B584B04E
S31520000C7000AF78600023FB601DE07B681A68FB6884
S31520000C8004335B00D31804331B781A007B68DB68B7
S31520000C90D0187B681A68FB6804335B00D3180533C9
S31520000CA01B781A007B681B69D3181900FFF7C0FF51
S31520000CB0FB680133FB607B681B681B68FA689A42F5
S31520000CC0DBDBC046C046BD4604B080BD80B584B0DF
S31520000CD000AF78600023FB601DE07B681A68FB6824
S31520000CE004335B00D31804331B781A007B68DB6857
S31520000CF0D0187B681A68FB6804335B00D318053369
S31520000D001B781A007B681B69D3181900FFF793FF1D
S31520000D10FB680133FB607B681B681B68FA689A4294
S31520000D20DBDBC046C046BD4604B080BD80B584B07E
S31520000D3000AF78607B689B697A68100098477B686B
S31520000D405A687B68DB68D318FB607B689A687B6887
S31520000D501B69D318BB60FB68002B0CDC7B681B6A05
S31520000D6078680022002198470220FFF7DDF93C230E
S31520000D70FB600A23BB60FB68802B0CDD7B681B6A4B
S31520000D8078680022002198470120FFF7CDF93C23FF
S31520000D90FB600A23BB60BB68002B06DC7B689B6874
S31520000DA05A427B689A600123BB60BB68402B06DDF4
S31520000DB07B689B685A427B689A604023BB607B684D
S31520000DC0FA68DA607B68BA681A617B685B697A6858
S31520000DD010009847C046BD4604B080BD80B584B09B
S31520000DE000AF78607B689B697A68100098477B68BB
S31520000DF05A687B68DB68D318FB607B689A687B68D7
S31520000E001B69D318BB607B685B685A427B685A6053
S31520000E107B685B697A6810009847C046BD4604B077
S31520000E2080BD80B584B000AF78607B689B697A68A6
S31520000E30100098477B685A687B68DB68D318BB60CC
S31520000E407B689A687B681B69D318FB60FB68002B5C
S31520000E5006DC7B689B685A427B689A600123FB60AC
S31520000E60FB68402B06DD7B689B685A427B689A604C
S31520000E704023FB607B68BA68DA607B68FA681A618F
S31520000E807B685B697A68100098477B681B6A78687C
S31520000E90002200219847C046BD4604B080BD80B5DB
S31520000EA084B000AFF860B9607A60FB68BA685A60AF
S31520000EB0FB687A689A60C0461800BD4604B080BDBB
S31520000EC090B587B000AF454B7B61454B3B61454BA9
S31520000ED0FB60FFF7B3FEFFF7A5FEFFF7A6FE404B2C
S31520000EE0414ADA613E4B414A5A613E4B3E4ADA61FB
S31520000EF03C4B3E4A5A61394B3D4ADA61374B3B4AB5
S31520000F005A61FFF7A5F97B69DB697A691000984772
S31520000F100120FFF770FE3B69DB693A6910009847AC
S31520000F20FB68DB69FA68100098477A693B6911000B
S31520000F301800FFF777FB0300BB607A69FB68110096
S31520000F401800FFF76FFB03007B60BB68002B02D104
S31520000F507B68002B03D07B691800FFF73FFFFC1C42
S31520000F60FFF730FB03002370FB1C1B78092BCAD824
S31520000F709A00204BD3181B689F461F4B1B68002BDB
S31520000F8006D07A69F9683B691800FFF747FA24E02A
S31520000F907A693B6911001800FFF780FA1DE0FB68AB
S31520000FA01B6A03225242F8680021984715E0FB6825
S31520000FB01B6AF8680322002198470EE03B691B6AEA
S31520000FC00322524238690021984706E03B691B6A92
S31520000FD03869032200219847C04694E77C130020F5
S31520000FE0A0130020C4130020230E00206D0C002027
S31520000FF02D0D0020E01400201015002080B500AF34
S315200010000E4B0F4ADA610D4B0E4A5A610E4B1B6886
S31520001010DA690D4B1B68180090470C4B084ADA61B9
S315200010200A4B084A5A610A4B1B68DA69084B1B6847
S3152000103018009047C0461800BD4680BDE813002022
S315200010402D0D00206D0C0020301400200C140020E3
S315200010503414002080B500AF084B1B689A69074BF3
S315200010601B6818009047064B1B689A69044B1B683F
S3152000107018009047C0461800BD4680BD3014002099
S315200010803414002003460B437FD4002243088B42AE
S3152000109074D303098B425FD3030A8B4244D3030BD9
S315200010A08B4228D3030C8B420DD3FF22090212BA9E
S315200010B0030C8B4202D31212090265D0030B8B421A
S315200010C019D300E0090AC30B8B4201D3CB03C01A04
S315200010D05241830B8B4201D38B03C01A5241430BDF
S315200010E08B4201D34B03C01A5241030B8B4201D3CF
S315200010F00B03C01A5241C30A8B4201D3CB02C01A3A
S315200011005241830A8B4201D38B02C01A5241430AB1
S315200011108B4201D34B02C01A5241030A8B4201D3A0
S315200011200B02C01A5241CDD2C3098B4201D3CB0147
S31520001130C01A524183098B4201D38B01C01A5241F6
S3152000114043098B4201D34B01C01A524103098B42FA
S3152000115001D30B01C01A5241C3088B4201D3CB00E5
S31520001160C01A524183088B4201D38B00C01A5241C8
S3152000117043088B4201D34B00C01A5241411A00D278
S3152000118001465241104670475DE0CA0F00D04942E1
S31520001190031000D34042534000229C4603098B4251
S315200011A02DD3030A8B4212D3FC22890112BA030AD9
S315200011B08B420CD3890192118B4208D3890192115B
S315200011C08B4204D389013AD0921100E08909C309E0
S315200011D08B4201D3CB01C01A524183098B4201D3E2
S315200011E08B01C01A524143098B4201D34B01C01ACD
S315200011F0524103098B4201D30B01C01A5241C30845
S315200012008B4201D3CB00C01A524183088B4201D3B3
S315200012108B00C01A5241D9D243088B4201D34B00CE
S31520001220C01A5241411A00D20146634652415B1010
S31520001230104601D34042002B00D5494270476346F1
S315200012405B1000D3404201B5002000F005F802BD36
S315200012500029F8D016E770477047C0460C000000FA
S31520001260040000000400000000010002010001014A
S31520001270010201030200020102020203030103022A
S315200012800000000000000000000000000000000038
S315200012900000000000000000000000000000000028
S315200012A0000000001B0000000500000009000000EF
S315200012B000010002000300040005000600070008E4
S315200012C000000100020003000400020302040205DC
S315200012D004010402040304040405040604070408A4
S315200012E00008010802080308040800000C0000009A
S315200012F004000000050000000100020003000001B8
S315200013000002020203020003030301040204030491
S3152000131000000000000000000000000000000000A7
S315200013200000000000000000000000000000000097
S31520001330000000000C000000040000000500000072
S315200013400100020003000001040100020402000360
S31520001350040301040204030400000000000000004E
S315200013600000000000000000000000000000000057
S315200013700000000000000000000000005C120020B9
S3152000138004000000020000003C00000014000000E1
S315200013906D0C0020CD0C00202D0D00209F0E00206E
S315200013A0A4120020000000000000000078000000C9
S315200013B01E0000006D0C0020CD0C0020230E002006
S315200013C09F0E0020A4120020000000000000000054
S315200013D0050000001E0000006D0C0020CD0C002032
S315200013E0230E00209F0E0020EC120020000000009B
S315200013F000000000370000001E0000006D0C0020D9
S31520001400CD0C00202D0D00209F0E0020341300202F
S315200014100000000000000000410000001E00000047
S315200014206D0C0020CD0C00202D0D00209F0E0020DD
S31520001430E81300200C140020506C6179657220316D
S315200014402057696E73212120202000005072657379
S3152000145073203520666F722072656D617463682112
S3152000146000000000506C6179657220322057696E49
S315200014707321212020200000506C61796572203173
S315200014803A000000506C6179657220323A00000003
S3152000149020706F696E7473005E0500203E05002083
S315200014A0460500204E050020560500200102030AAD
S315200014B00405060B0708090C0E000F0D486F772050
S315200014C0697320382B383D343F000000526F746119
S315200014D074652074686520636C6F636B2E00000052
S315200014E0060F00209E0F0020060F0020BC0F0020B4
S315200014F0060F00207A0F0020060F0020AE0F0020D6
S31520001500060F0020CC0F0020000000000000000085
S3092000151000000000B1
S70520000000DA
